:020000040800F2
:1000000078500020A1010008D7290008F127000836
:10001000D52900087D0800087131000800000000A3
:10002000000000000000000000000000852B000818
:10003000B908000800000000D9290008872B000833
:10004000BB010008BB010008BB010008BB010008A0
:10005000BB010008BB010008BB010008BB01000890
:10006000BB010008BB010008BB010008BB01000880
:10007000BB010008BB010008BB010008BB01000870
:10008000BB010008BB010008C5060008BB01000851
:10009000BB010008BB010008BB010008BB01000850
:1000A000652C0008BB010008BB010008BB0100086B
:1000B000BB0100080000000000000000BB010008B8
:1000C000BB0100080000000000000000BB010008A8
:1000D00000000000BB0100086531000800000000BE
:1000E000BB010008BB010008000000000000000088
:1000F0000000000000000000000000000000000000
:10010000000000000000000000000000BB0100082B
:100110000000000000000000BB010008BB01000857
:10012000BB010008BB010008BB010008BB010008BF
:10013000BB010008000000000000000000000000FB
:10014000BB010008BB010008BB010008BB0100089F
:10015000BB010008BB010008BB010008BB0100088F
:10016000BB010008BB010008BB0100080000000043
:10017000BB010008BB0100080000000000000000F7
:10018000BB010008BB010008BB010008DFF80CD070
:1001900000F05AFA004800472D420008785000202D
:1001A0000648804706480047FEE7FEE7FEE7FEE711
:1001B000FEE7FEE7FEE7FEE7FEE7FEE7212C00088C
:1001C0008D0100082DE9F05F0546002092469B4610
:1001D00088460646814640241BE02846414647465D
:1001E000224600F08DF953465A46C01A914110D369
:1001F00011461846224600F074F92D1A67EB0108E3
:100200004F4622460120002100F06BF917EB000950
:100210004E41201EA4F10104DFDC484631462A4647
:10022000434600F000B830BCBDE8C09F40EA01037F
:100230009B0703D009E008C9121F08C0042AFAD29C
:1002400003E011F8013B00F8013B521EF9D2704760
:10025000D2B201E000F8012B491EFBD27047002208
:10026000F6E710B513460A4604461946FFF7F0FFB5
:10027000204610BD421C10F8011B0029FBD1801A3A
:10028000704730B504460020034600E05B1C9342F3
:1002900003D2E05CCD5C401BF8D030BD2DE9FE4FB1
:1002A00081EA030404F0004421F0004100944FF07F
:1002B000000B23F0004350EA01045ED052EA03042D
:1002C0005BD0C3F30A54C1F30A552C44A4F2F334AF
:1002D0000194A0FB0254C1F3130141F48011C3F354
:1002E000130343F4801301FB024400FB034E840A12
:1002F000970A44EA815447EA8357A4FB07680295AA
:100300008D0A05FB07854FEA932C04FB0C54270547
:10031000029D4FEA065847EA1637B5EB08056EEB23
:10032000070C870E920E47EA811742EA8312A7FB59
:100330000201B6EB0B0164EB00042B0D43EA0C3316
:100340005E1844EB1C50DA465146E7FB0201C5F348
:1003500013044FEA0B3343EA14534FEA0432019C6F
:1003600043EA0603A4F10C040294009CCDE900B416
:1003700000F01CF903B000F003B800200146F9E7D3
:1003800030BCBDE8C08F2DE9F04D81EA030404F0D4
:10039000004B21F0004514464FF0000A23F00041C5
:1003A00050EA050220D054EA01021DD0C5F30A57D5
:1003B0000246C5F31303C1F31300C1F30A5640F418
:1003C000801543F48013A7EB0608101BD64608F2ED
:1003D000FD3873EB050002D308F1010801E0921823
:1003E0005B41B8F1000F03DA00200146BDE8F08D53
:1003F00000204FF48011064684460EE0171B73EB75
:10040000050705D3121B63EB050306434CEA010CF9
:1004100049084FEA300092185B4150EA0107EDD1DC
:1004200052EA030012D082EA040083EA050108437D
:1004300005D0101BAB4106D20122002306E00022AA
:100440004FF0004302E06FF0010253101AEB060078
:100450004CEB085110EB0A0041EB0B01BDE8F04DED
:1004600000F095B80EB540F2334102910021CDE97C
:1004700000110A460B4600F099F803B000BD01F0E8
:10048000004330B421F0004150EA010206D00A0DC9
:10049000A2F56072C1F31301002A02DC30BC002017
:1004A0007047440F44EAC104C100E01830BC00EBBF
:1004B000C25000F035B830B50B460146002020226E
:1004C000012409E021FA02F59D4205D303FA02F561
:1004D000491B04FA02F52844151EA2F10102F1DCC1
:1004E00030BD202A04DB203A00FA02F100207047D8
:1004F0009140C2F1200320FA03F319439040704762
:10050000202A04DB203A21FA02F00021704721FA68
:1005100002F3D040C2F120029140084319467047CF
:100520000029A8BF7047401C490008BF20F0010007
:10053000704710B4B0FA80FC00FA0CF050EA0104E5
:1005400004BF10BC704749B1CCF1200421FA04F477
:1005500011FA0CF118BF012121430843A3EB0C0150
:10056000CB1D4FEA00614FEA102042BF002010BCB3
:10057000704700EBC35010440029A4BF10BC704763
:10058000401C490008BF20F0010010BC704710B5A6
:10059000141E73F1000408DA401C41F100019218A6
:1005A0005B411A4301D120F0010010BD2DE9F04D4F
:1005B00092469B4611B1B1FA81F202E0B0FA80F2A4
:1005C00020329046FFF78DFF04460F4640EA0A00AE
:1005D00041EA0B0153465A46084313D0114653EAE9
:1005E000010019D0C8F140025046FFF789FF0546C7
:1005F0000E46504659464246FFF773FF084305D062
:10060000012004E020463946BDE8F08D0020054376
:1006100046EAE0762C4337430A986305E40AA0EBE8
:1006200008000022FD0A44EA47540A3002D500209F
:100630000146E9E7010510196941DDE9084500199E
:100640006941BDE8F04DA2E7064C074D06E0E068C1
:1006500040F0010394E8070098471034AC42F6D309
:10066000FFF798FDB8630008D863000870B58C18D0
:1006700010F8015B15F0070301D110F8013B2A11B6
:1006800006D110F8012B03E010F8016B01F8016BA3
:100690005B1EF9D12B0705D40023521E0DD401F89F
:1006A000013BFAE710F8013BCB1A921C03E013F868
:1006B000015B01F8015B521EF9D5A142D8D300209D
:1006C00070BD0000014800F0FBBA00004C0700209C
:1006D0002DE9F041044600270D46006802F093F82A
:1006E0000646206802F08BF8304359D02068C16874
:1006F0002C4E890105D5617E012902D1217E012977
:100700000BD0022D1DD0206802F07DF8B8B1206812
:100710008168C1F3400169B111E00125224902E07D
:100720008F422ED27F1C0268D2435206F8D4402159
:100730000160E8E78168314041F010018160012DDE
:1007400011D0206802F05BF848B120688168C1F3DD
:10075000400121B98168314041F020018160022DC2
:1007600008D0032D04D0042500F0DEFE064613E079
:100770000C25F9E70825F7E700F0D6FE801B0528D1
:100780000AD9606D40F010006065A06D40F0010076
:10079000A0650120BDE8F081206880682842EBD187
:1007A0000020F7E7C0FFFF7F000040A370B50446BC
:1007B000006881688268C1F3400112F0010F24D003
:1007C00019BB816801F00D01012910D18168104A1F
:1007D0001140891C816021680320086000F0A4FE9C
:1007E00005460EE000F0A0FE401B022809D9606D0E
:1007F00040F010006065A06D40F00100A065012090
:1008000070BD20688068C007ECD1002070BD00007A
:10081000C0FFFF7F70B504460068816811F0010FCA
:1008200028D18168144A114215D18168D5432940E5
:10083000491C816000F078FE064616E0816811F0E0
:10084000010F03D181682940491C816000F06CFED2
:10085000801B022809D9606D40F010006065A06D12
:1008600040F00100A065012070BD20680168C94307
:10087000C907E3D1002070BD3F000080FEE7000003
:100880000948016821F001010160084801218160E7
:1008900081680029FCD10649016000680549884249
:1008A00000D0FEE770470000002000E0003002406A
:1008B000C2A507F4CDB5E8B57047704770477047DB
:1008C000704770472DE9F84F00270446009790F8CD
:1008D0005000DFF8B0930D46B846012811D001262C
:1008E00084F85060206801F08EFF60B1606D40F0C8
:1008F000200060655FF0010784F85080384600F002
:10090000D7B90220FBE768680C23052812D8022813
:1009100007D0032807D0042807D0052807D00620D1
:1009200007E06B6006E0122003E0182001E04FF4BE
:1009300080706860D5E90021206803EA91131844AB
:10094000036B01F01F014FF01F0C0CFA01FCC2F306
:10095000846223EA0C038A4013430363206801F096
:1009600052FF8246206801F04AFF5AEA00001DD17A
:10097000AA682968206801F052FF20686969C26886
:10098000C2F3C102520091402A69042A0FD000EB41
:1009900082002B68026EDFF8F0C203F0F84302EA2F
:1009A0000C020B431A4342F00041016672E0002141
:1009B00001F01FFF400320684FF0000172D001F0EA
:1009C00018FF90FAA0F0B0FA80F1286842036ED0C8
:1009D00090FAA0F0B0FA80F0814204D100221146D2
:1009E000206801F02BFF0121206801F002FF400385
:1009F00020684FF001015DD001F0FBFE90FAA0F0FD
:100A0000B0FA80F12868420359D090FAA0F0B0FA09
:100A100080F0814204D100220121206801F00EFF04
:100A20000221206801F0E5FE400320684FF002013A
:100A300048D001F0DEFE90FAA0F0B0FA80F128680C
:100A4000420344D090FAA0F0B0FA80F0814204D181
:100A500000220221206801F0F1FE0321206801F04C
:100A6000C8FE400320684FF0030133D001F0C1FEFF
:100A700090FAA0F0B0FA80F1286842032FD090FAE3
:100A8000A0F0B0FA80F0814204D100220321206856
:100A900001F0D4FE2068816811F0010F22D0ACE093
:100AA00000E004E001F0A5FEC0F384618DE7C0F32F
:100AB000846091E701F09DFEC0F38461A2E7C0F37A
:100AC0008460A6E701F095FEC0F38461B7E7C0F348
:100AD0008460BBE701F08DFEC0F38461CCE7C0F316
:100AE0008460D0E72A7B296850F8B03FC1F3120C2C
:100AF00023EA0C0302F0180C644A22FA0CF20A40B2
:100B000013430360E968494577D1286841031CD045
:100B100090FAA0F1B1FA81F1491C01F01F010929F5
:100B20004FEA403132D8002912D000BF90FAA0F12C
:100B3000B1FA81F101F1010101F01F0106FA01F69C
:100B400009D100BFC0F3846109E0C0F38461E3E729
:100B5000C0F38461EEE790FAA0F1B1FA81F101F1FE
:100B6000010101F01F0146EA816102D1C0F38460F6
:100B700003E090FAA0F0B0FA80F000F1010000F07C
:100B80001F0000EB400041EA005132E000290ED086
:100B900090FAA0F1B1FA81F101F1010101F01F0118
:100BA00006FA01F606D100BFC0F3846106E0C0F387
:100BB0008461F1E790FAA0F1B1FA81F101F101014C
:100BC00001F01F0146EA816102D1C0F3846003E0B5
:100BD00090FAA0F0B0FA80F000F1010000F01F00E0
:100BE0002B4A00EB400002EB005041EA000141F0CB
:100BF0000071AA68206801F012FE26482A680242A5
:100C00003FF47AAE24488168244D254B01F0E07111
:100C1000AA421AD10D0218D422689A427FF46CAE0F
:100C2000826841F4000122F0E0720A4382601D48AC
:100C30001D490068B0FBF1F000EB4000800000E0CF
:100C4000401E00900028FBD156E6184DAA4207D15D
:100C5000CD0105D422689A42F6D141F080710AE0B4
:100C60006FF00045EA42EFD14A02EDD422689A4281
:100C7000EAD141F48001826822F0E0720A43826086
:100C80003AE6000000007F4000F0FF03FFFF07008E
:100C9000000020FE0000088000030450000052C73E
:100CA00000000450F4060020400D0300000084CB37
:100CB00018BCBDE8E08F704770470068006C704753
:100CC0002DE9F0410446006806684568B0070ED576
:100CD000A8070CD5606DC00603D4606D40F40060B9
:100CE00060652046FFF7E9FD216802200860700773
:100CF00001D5680703D4300724D5280722D5606DB5
:100D0000C00603D4606D40F400706065206801F097
:100D10007EFD88B12068C16889040DD40168090787
:100D20000AD501F070FD50B3606D40F010006065B1
:100D3000A06D40F00100A0652046FFF7BCFF2168D0
:100D40000C200860B00601D5A80603D4700645D56E
:100D5000680643D5606DC00603D4606D40F4005052
:100D600060652068C16C11F0C00F19D05FF00007FA
:100D700001F04DFD21680246C868C7B912E020683D
:100D8000416821F00C014160606D20F48070606565
:100D9000606DC004D0D4606D40F001006065CBE7A9
:100DA0000127E5E7830113D492B1820410D40A68C5
:100DB00052060DD580020BD4084601F020FDE8B3A1
:100DC000606D40F010006065A06D40F00100A0650E
:100DD0002046FFF773FD21686020086030060BD5C0
:100DE000280609D5606D40F480306065204600F02B
:100DF00039F9216880200860F0050CD5E8050AD58E
:100E0000606D40F4003060652046FFF759FD2168B1
:100E10004FF480700860B0050CD5A8050AD5606D48
:100E200040F4802060652046FFF74BFD21684FF4B9
:100E300000700860F00617D5E80600E029E013D539
:100E4000606B18B12068C068C0070AD0606D40F4BC
:100E500080606065A06D40F00200A0652046FFF74D
:100E60002BFF216810200860700523D5680521D567
:100E7000606D40F480406065A06D40F00800A065A2
:100E800021684FF4806008602046BDE8F041FFF71C
:100E900016BD2068416821F060014160606D20F45A
:100EA00080506065606DC00592D4606D40F00100B7
:100EB00060658DE7BDE8F081F8B54FF000050400EE
:100EC0002E46009502D0606D10B107E00120F8BDFC
:100ED000204600F0C9F8A66584F850602068816853
:100EE000C1F3407119B18168564A11408160206890
:100EF0008168C1F3007179B98168534A114041F0AA
:100F000080518160514852490068B0FBF1F000E027
:100F1000401E00900028FBD120688168C1F3007159
:100F200041B9616D41F010016165A16D41F00101B0
:100F3000A165012501F067FC616DC90600D430B1DF
:100F4000606D40F01000606501252846F8BD606DB9
:100F500020F4807040F0020060652068806810F026
:100F6000010F0BD13B48806810F0010F06D13A48C1
:100F70006168826822F47C120A438260E168606BD7
:100F8000627E0843A16841EA4231084394F8201088
:100F900040EA0140012904D1A18C304A02EB4141D1
:100FA0000843A16A29B101F47071E26A014342EA7F
:100FB00001002168CA682A4B1A400243CA602068AF
:100FC00001F021FC0646206801F019FC304315D1E0
:100FD000207E94F83010800340EA41022068C16806
:100FE00044F2020399431143C16094F83800012888
:100FF0000CD02068016921F00101016120690128FC
:101000002068016B21F00F0111D013E0D4E90F012A
:101010000843D4E911121143084321680A6940F2D8
:10102000FC739A43104340F001000861E6E7E2696F
:10103000521E11430163606D20F0020040F0010078
:10104000606582E7C0FFFF5FC0FFFF7FF4060020FE
:10105000400D030000000450000304500000FEFF98
:1010600007C0F0FF7047000010B586B00446142199
:101070006846FFF7F4F815492068884223D11448E0
:10108000C16C41F40051C164C16C01F4005105917F
:10109000C16C41F00101C164C06C694600F00100FF
:1010A0000590012000900B200190002002904FF04D
:1010B000904000F063F900221146122000F098FAE7
:1010C000122000F087FA06B010BD000000000450A6
:1010D000001002402DE9F041044640690D46082801
:1010E0000AD02068C068C00708D0606D40F02000BA
:1010F00060650120BDE8F081082600E0042600F0CC
:1011000013FA074607E0681C05D000F00DFAC01B73
:10111000A8420FD875B1206800683042F3D0606DE6
:1011200040F400706065206801F071FBD0B1607E12
:1011300048B117E0606D40F004006065002084F85D
:1011400050000320D6E72068006800070AD5606DCC
:1011500020F480706065606DC00403D4606D40F061
:10116000010060652068C168082E05D0490401D4DB
:101170000C2101600020BDE70821FAE710B5044604
:10118000006801F040FB10B10221084610BD94F840
:10119000500001280CD0012084F850002046FFF7B1
:1011A00039FB01004FF0000004D084F85000ECE758
:1011B000022010BD626D40F601639A4342F48072D2
:1011C0006265626DD20404D5A26D22F00602A265AA
:1011D00000E0A06523681C221A6084F85000206893
:1011E000C268920105D5626D22F4005242F4805229
:1011F00062658268024B1A40121D8260C5E70000DA
:10120000C0FFFF7F10B5044690F85000012808D0B9
:10121000012084F8500003212046FFF759FA10B14D
:101220000BE0022010BD2046FFF7C0FA28B9616D1F
:1012300021F4885141F001016165002184F85010CA
:1012400010BDF0B5044600201E23012601E05B1E00
:1012500005D303F01F0706FA07F50D42F7D072B168
:10126000082A0AD0102A05D0182A01D1072B06D344
:101270000120F0BD082BFBD201E0102BF8D223682F
:10128000596121688B6823F0180313438B60F0BD0C
:1012900010B5040010D0607F20B9002020772046D0
:1012A00000F030F802206077207938B1D4E90212DA
:1012B0002046FFF7C6FF48B1012010BD2168104845
:1012C00048612068816821F0180181606079A0B1CF
:1012D00020692168086120688168626921F06001E5
:1012E0001143816020688168A26921F08001114367
:1012F000816001206077002010BD4FF0FF30E8E7EB
:10130000B71DC10408B500680649884208D10648DF
:10131000816C41F480518164806C00F480500090B5
:1013200008BD0000003002400010024010B590F8E7
:1013300025100024022903D00421C16301241AE0EE
:1013400001680A6822F00E020A6001680A6822F049
:1013500001020A6090F84410036C01F01C020121A4
:1013600001FA02F25A6080F82510002180F824105A
:10137000816B01B18847204610BD00002DE9FC4F6C
:10138000DFF880A1002301250AF1040B03244FF0AC
:101390000F0C0BF1040EAEE005FA03F632406FD0ED
:1013A0004F68012F05D0022F03D0112F01D0122F2B
:1013B00017D1D0F808905F0004FA07F829EA080965
:1013C0000097D1F80C8008FA07F848EA0908C0F835
:1013D00008804768B7430E79C6F300169E403E4327
:1013E0004660C6684FEA430804FA08F7BE4301970F
:1013F0008F6807FA08F73743C7604E68022E01D09E
:10140000122E13D1DE0800EB86060096366A5F07BF
:10141000FF0E0CFA07F926EA0906D1F8109009FA2E
:1014200007F949EA0609009EC6F820900768019E60
:10143000B7430E7906F0030606FA08F63E43066047
:101440004E68F60056D5304E376E47F001073766C6
:10145000366E23F0030706F0010600962B4E3E443D
:10146000B146B6689F074FEA17780CFA08F7BE43F3
:10147000B0F1904F05D0264FB84204D1012708E0C3
:1014800038E0002705E0234FB84201D1022700E0F1
:10149000072707FA08F73743C9F80870DAF8006039
:1014A0005746D1F8048096435FEAC83800D5164302
:1014B0003E60DBF800605F46D1F8048096435FEA47
:1014C000883800D516433E60DEF800607746D1F8D4
:1014D000048096435FEAC82800D516433E60094F52
:1014E0000C373E68D1F8048096435FEA882800D51F
:1014F00016433E605B1C0A6832FA03F67FF44CAF79
:1015000000F00AB800040140001002400000014051
:1015100000040048000800481CBCBDE8E08F0AB188
:1015200081617047816270470148806870470000A0
:10153000E8060020024881684268114481607047D3
:10154000E806002010B50024032000F071F8002008
:1015500000F008F808B1012401E000F025F8204669
:1015600010BD000070B50E4E05460024706898B19D
:101570004FF47A71B1FBF0F00A490968B1FBF0F061
:1015800000F0A6FD40B9102D06D200222946501EBB
:1015900000F02EF8356000E00124204670BD000008
:1015A000E8060020F4060020094808B5016E41F065
:1015B00001010166016E01F001010091816D41F0B0
:1015C00080518165806D00F08050009008BD000062
:1015D00000100240002809DB00F01F0201219140A9
:1015E0004009800000F1E020C0F8001170470000C1
:1015F000F0B40E4B1B680C46C3F30223C3F107057E
:10160000042D00D90425191D072901D2002300E06B
:10161000DB1E012606FA05F1491E214099409E4035
:10162000761E16403143F0BC01F0CBBD0CED00E05E
:10163000064900F0070208684FF6FF03184040EA29
:101640000220034A10430860704700000CED00E0E0
:101650000000FA051649B0F5007F0868C0F3412084
:1016600009D0022805D0086820F4C06040F48060EA
:101670000860002070470128FBD0086820F4C06093
:1016800040F4007008600B483222006850430A4A58
:10169000B0FBF2F0401C00E0401E4A69520501D543
:1016A0000028F9D148694005E3D5032070470000C0
:1016B00000700040F406002040420F00024800681D
:1016C00000F4C06070470000007000402DE9F84F42
:1016D0000446002700889C4D3E46000515D5E06B6A
:1016E00060B1B0F5000F04D0B0F5400F2BD001274A
:1016F0000AE0E86840F48030E86024E00021201D22
:1017000001F06CF907001ED03E462068800338D5F2
:10171000A86D4FF00008C00009D4A86D40F08050BB
:10172000A865A86D4FF0010800F080500090DFF828
:101730001CA2DAF8001041F48071CAF80010FFF71B
:10174000F3FE814610E0D5F88800E16B20F44000FC
:101750000843C5F88800D8E7FFF7E6FEA0EB0900CC
:10176000022801D9032704E0DAF80000C005F3D508
:10177000EFB33E46B8F1000F03D0A86D20F08050C3
:10178000A8652078C00707D0D5F88800216A20F026
:1017900003000843C5F888002078800707D5D5F8EE
:1017A0008800616A20F00C000843C5F888002078A2
:1017B000800607D5D5F88800A16A20F44060084368
:1017C000C5F888002088800507D5D5F88800616BAA
:1017D00020F440200843C5F888002088400509D53A
:1017E000D5F88800A16B20F44010084300E02EE0FB
:1017F000C5F888002078400607D5D5F88800E16A4A
:1018000020F440500843C5F888002088C00507D55B
:10181000D5F88800216B20F440300843C5F88800D3
:1018200020884FF0006780044FF080684ED5D5F8CF
:101830008800216C20F040600843C5F88800206CC7
:10184000B8423BD1E86840F48010E8603EE0D5F84B
:10185000900010F4407014D0216D814211D0D5F861
:101860009000D5F8901020F4407041F48031C5F814
:101870009010D5F8901021F48031C5F89010C5F87B
:101880009000C00711D0FFF74FFE074641F288399C
:1018900007E000BFFFF748FEC11B494501D90326F9
:1018A00068E7D5F890008007F4D5D5F89000216D51
:1018B00020F440700843C5F890005BE7404505D12F
:1018C0000121201D01F08AF800B10646206840037E
:1018D00017D5D5F88800616C20F040600843C5F842
:1018E0008800606CB84204D1E86840F48010E86079
:1018F00007E0404505D10121201D01F06FF800B13E
:1019000006462088400411D5D5F88800A16C20F047
:1019100040500843C5F88800A06CB0F1805F05D145
:101920000221201D01F05AF800B10646208800046B
:1019300006D555F8880FE16C20F0804008432860F8
:10194000304600F005B80000001002400070004072
:1019500018BCBDE8E08F00002DE9F0470F460500F8
:1019600058D0404E306800F00700B84209D23068C5
:1019700020F0070038433060306800F00700B842BC
:1019800048D12878384CC0072CD06868032811D07B
:10199000022812D0216898B1490500293ADAA168D5
:1019A00021F003010143A160FFF7BEFD804641F233
:1019B000883910E021688901EFE721688903ECE7A5
:1019C0008907EAE7FFF7B0FDA0EB0801494502D916
:1019D0000320BDE8F087A068696800F00C00B0EB58
:1019E000810FEFD12878800705D5A068A96820F07D
:1019F000F0000843A060306800F00700B8420BD93F
:101A0000306820F0070038433060306800F007008D
:101A1000B84201D00120DCE72878400705D5A0684E
:101A2000E96820F4E0600843A0602878000706D544
:101A3000A068296920F4605040EAC100A06000F06D
:101A40003FF8A168094AC1F30311515C01F01F017D
:101A5000C8400749086007480068BDE8F047FFF73D
:101A600081BD0000002002400010024020630008F9
:101A7000F4060020E8060020054806490068896849
:101A8000054AC1F30221515C01F01F01C8407047B3
:101A9000F406002000100240606300080548064973
:101AA00000688968054AC1F3C221515C01F01F0139
:101AB000C8407047F4060020001002406063000830
:101AC00070B52549002318468A68CC6812F00C02CC
:101AD00004F00306214C4FEA640509D00C2A05D016
:101AE000042A32D0082A00D1284670BD012E10D118
:101AF0000B681B0704D4D1F89430C3F3032302E02E
:101B00000B68C3F30313164E56F82330DAB10C2AD0
:101B1000EBD1C86800F00300022818D0032818D0C1
:101B20001846CA68CB68C2F30212C3F306234343C4
:101B3000521CB3FBF2F2C868C0F34160401C400085
:101B4000B2FBF0F070BD184670BD204670BD204657
:101B5000E7E72846E5E70000001002400024F40013
:101B6000306300082DE9F84304006FD0FE4DA868EB
:101B700000F00C06E86800F003072078C00664D582
:101B800076B10C2E01D1012F0AD0A0690028286857
:101B90007AD040F001002860FFF7C6FC80465DE087
:101BA0002868800702D5A0690028DED0216A28684D
:101BB000000703D5286800F0F00004E0D5F8940091
:101BC000F02202EA1010814216D9084600F09CFF6C
:101BD00000283BD1286840F0080028602868216A66
:101BE00020F0F000084328606868E16920F47F4035
:101BF00040EA0120686016E0286840F0080028608C
:101C00002868216A20F0F000084328606868E169CC
:101C100020F47F4040EA0120686026B9206A00F085
:101C200073FF0028D5D1FFF74BFFA968CF4AC1F356
:101C30000311515C01F01F01C840CD490860CD4837
:101C40000068FFF78FFC00287ED12EE0CAE000BFBD
:101C5000FFF76AFCA0EB0800022876D82868800706
:101C6000F6D5286840F0080028602868216A20F02E
:101C7000F000084328606868E16920F47F4040EA8A
:101C80000120686011E0FFE720F001002860FFF705
:101C90004BFC804606E000BFFFF746FCA0EB0800C7
:101CA0000228DAD828688007F6D42078C00740D008
:101CB000082E18D00C2E01D1032F14D06068B0F577
:101CC000803F17D0B0F5A02F286817D020F48030BF
:101CD0002860286820F4802028606068E0B1FFF761
:101CE00023FC804614E02868800322D56068002821
:101CF00078D01EE0286840F48030EDE740F4802082
:101D00002860F7E7FFF710FCA0EB08006428A4D8D0
:101D100028688003F6D50CE0FFF706FC804605E056
:101D2000FFF702FCA0EB0800642896D8286880031F
:101D3000F6D4207880073BD5042E11D00C2E01D18B
:101D4000022F0DD0E06801E0B6E1FFE0002828682E
:101D50001ED040F480702860FFF7E6FB07460CE0D9
:101D6000286840050CD5E0680028C1D008E000BF15
:101D7000FFF7DAFBC01B022893D828684005F7D587
:101D80006868217C20F0F85040EA016068600FE04C
:101D900020F480702860FFF7C7FB074605E000BF0E
:101DA000FFF7C2FBC01B0228B1D828684005F7D452
:101DB0002078000729D560690028D5F8940012D052
:101DC00040F00100C5F89400FFF7AEFB074604E0C1
:101DD000FFF7AAFBC01B022899D8D5F8940080070A
:101DE000F6D512E02BE120F00100C5F89400FFF7D2
:101DF0009BFB074605E000BFFFF796FBC01B0228D0
:101E000085D8D5F894008007F6D42078400766D5A9
:101E1000A86D0027C00008D4A86D40F08050A865C8
:101E2000A86D012700F08050009053480168C90553
:101E300012D40168814641F480710160FFF774FBA0
:101E4000804605E0FFF770FBA0EB080002287DD874
:101E5000D9F80000C005F5D5A068012816D00528DE
:101E6000D5F8900017D020F00100C5F89000D5F803
:101E7000900020F0040000BFC5F89000A06841F277
:101E80008839C0B1FFF750FB80460FE0D5F89000CD
:101E900040F00100F0E740F00400C5F89000F5E7DD
:101EA000FFF742FBA0EB080149454FD8D5F8900059
:101EB0008007F5D50EE0FFF737FB804606E000BF50
:101EC000FFF732FBA0EB080149453FD8D5F8900059
:101ED0008007F5D41FB1A86D20F08050A865207848
:101EE000800628D5606A0028D5F8980012D040F006
:101EF0000100C5F89800FFF717FB074605E000BF93
:101F0000FFF712FBC01B022820D8D5F898008007E5
:101F1000F6D510E020F00100C5F89800FFF704FBAB
:101F2000074604E0FFF700FBC01B02280ED8D5F8D7
:101F300098008007F6D4A06AA8B1022824D00C2EFD
:101F40007DD0286820F08070286000E0B3E0286829
:101F5000000103D4E86820F00300E860E86807495E
:101F60000840E8600CE09FE0001002402063000899
:101F7000F4060020E806002000700040FFFFEEFE9F
:101F8000FFF7D2FA044699E0E868E26A00F003013C
:101F9000914226D1216B00F0700209011039914263
:101FA0001FD1626B00F4FE41B1EB022F19D194F8FE
:101FB000382000F07841B1EBC26F12D1A18F00F44C
:101FC000C00249084905A1F50011914209D194F8D0
:101FD000401000F0C06049084906A1F1007181423B
:101FE0004BD00C2E6FD0286840016CD4286820F0AC
:101FF00080702860FFF798FA064604E0FFF794FA2D
:10200000801B022857D828688001F7D4F4E90B0117
:102010006FF00F0202EB01110843218A52044908B4
:1020200002EB4151A26841EA02210843217D4FF0B1
:102030007E42490802EB41610843217B00E042E017
:1020400040EAC160E968214A11400843E860286815
:1020500040F080702860E86840F08070E860FFF72A
:1020600063FA044605E000BFFFF75EFA001B022892
:1020700021D828688001F7D523E02868800120D482
:10208000286840F080702860E86840F08070E86060
:10209000FFF74AFA044604E0FFF746FA001B02285D
:1020A00009D828688001F7D50BE000BFFFF73CFA9C
:1020B000001B022802D90320BDE8F88328688001AC
:1020C000F4D40020F8E70120F6E700008C809D01A1
:1020D00010B5401EB0F1807F01D3012010BD4FF03C
:1020E000E02460610F21601701F06BF80020A0610F
:1020F00007202061002010BD704770477047000026
:10210000F0B590F83C20012A29D0012480F83C4009
:10211000022280F83D2003685A689D68114EB34240
:1021200003D122F470074A683A4322F070070A6824
:102130003A435A600268B24205D0B2F1804F02D0F1
:10214000094B9A4204D1896825F0800319439160B4
:1021500080F83D40002180F83C100846F0BD022088
:10216000F0BD0000002C01400040014010B504000B
:1021700003D094F83D0010B107E0012010BD00200D
:1021800084F83C00204600F00DF8022084F83D0061
:10219000211D206800F06CFD012084F83D00002026
:1021A00010BD000008B500680B49884212D10B48E9
:1021B000016E41F480310166006E002200F480302F
:1021C000009011461820FFF713FABDE808401820C8
:1021D000FFF700BA08BD00000040014000100240B7
:1021E0000168CA6842F00102CA6001688868064A4C
:1021F0001040062806D0B0F5803F03D0086840F0B4
:1022000001000860002070470700010070B5044617
:1022100090F83C00012817D0012584F83C5002209A
:1022200084F83D00226890682E4B184020F47F40CF
:1022300090600868502830D00DDC20284DD005DC97
:1022400098B310283BD148E0022070BD302844D01C
:10225000402834D139E0602828D0702806D0B0F565
:10226000805F2CD0B0F5005F29D10AE0CB68D1E9BE
:102270000121206800F032FD2068816841F077017B
:1022800009E0CB68D1E90121206800F027FD206832
:10229000816841F48041816011E0CA684968206822
:1022A00000F02EFD5021206807E016E0CA6849685A
:1022B000206800F036FD6021206800F019FD84F8E8
:1022C0003D50002084F83C0070BDCA684968206811
:1022D00000F016FD40212068EFE722680146104615
:1022E000EBE7000088FFFEFF704770B5044600680A
:1022F00001694FF00005C943890715D4C168C94376
:10230000890711D4E91E01610120207720688069C6
:102310008007204602D0FFF7E7FF04E000F0A7F8AF
:10232000204600F0A5F8257720680169C9434907D0
:1023300017D4C168C943490713D46FF00401016180
:10234000022020772068806910F4407F204602D068
:10235000FFF7CAFF04E000F08AF8204600F088F892
:10236000257720680169C943090716D4C168C943A4
:10237000090712D46FF0080101610420207720685A
:10238000C0698007204602D0FFF7AEFF04E000F0EE
:102390006EF8204600F06CF8257720680169C94383
:1023A000C90617D4C168C943C90613D46FF0100118
:1023B0000161082020772068C06910F4407F204622
:1023C00002D0FFF791FF04E000F051F8204600F042
:1023D0004FF8257720680169C943C90708D1C1684A
:1023E000C943C90704D1891E0161204600F042F8A3
:1023F00020680169C943090609D4C168C9430906AF
:1024000005D46FF0800101612046FFF776FE206859
:102410000169C943C90509D4C168C943090605D47E
:102420006FF4807101612046FFF766FE2068016944
:10243000C943490609D4C168C943490605D46FF0A8
:1024400040010161204600F055F820680169C94348
:1024500089060BD4C168C943890607D46FF02001EF
:1024600001612046BDE87040FFF748BE70BD70476F
:102470007047000010B51848FEF780FE4FF47A71DF
:102480001548FEF727FE154CD0B91348FEF715FC8A
:10249000A060FDF7E7FF9FED121B53EC112BFDF73A
:1024A000FDFE9FED111B53EC112BFDF76CFFFDF7AB
:1024B000E6FFE0600E4A616842F82100491C616055
:1024C0000548FEF79FFE6068BB2803D101202080ED
:1024D0000020606010BD00004C070020A406002012
:1024E0006666666666660A400000000000FEAF4051
:1024F0009408002070477047704700002DE9F041B4
:1025000002680446D0691168936840F60F052842B6
:102510004FF0000505D186067BD58E0679D5216E54
:1025200088E003F0010601F49077374371D0C707C4
:1025300007D0CF0505D501271762E26F42F00102EF
:10254000E267820708D5DA0706D0276802223A62D6
:10255000E26F42F00402E267420708D5DA0706D0CC
:10256000236804221A62E26F42F00202E267020765
:102570000AD501F02002324306D0236808221A62ED
:10258000E26F42F00802E267020509D54A0107D569
:1025900023684FF400621A62E26F42F02002E267A1
:1025A000E26F002A2ED0800605D5880603D5216E5D
:1025B00009B120468847E06F21688968490602D43E
:1025C00010F0280F20D0204600F057FC20688168CA
:1025D000490614D5816821F040018160E06E70B138
:1025E0001D498163E06EFEF7A1FE00280AD0E06E6F
:1025F000816B00E02046BDE8F041084709E0204635
:10260000FFF77AFFBDE8F0812046FFF775FFE56729
:10261000F8E7C60209D55B0207D54FF480101062B7
:102620002046BDE8F041FFF766BF030605D50B065F
:1026300003D5616E0029DDD1E4E74006E2D5480606
:10264000E0D51168204621F040011160202161672A
:10265000656600F0CCF8D5E7672E000810B50400D9
:1026600002D0606F10B107E0012010BD002084F897
:102670007000204600F026F824206067206801687A
:1026800021F001010160204600F006FC0128ECD099
:10269000606A10B1204600F056FB2068416821F4C2
:1026A000904141602068816821F02A0181602068A2
:1026B000016841F0010101602046BDE8104000F0D2
:1026C000A6BB000010B586B0044614216846FDF78D
:1026D000C6FD17492068884227D11648816D41F40C
:1026E00000318165816D01F400310591C16C41F0CB
:1026F0000101C164C06C694600F0010005900C2026
:1027000000900220019000200290032003900720F7
:1027100004904FF09040FEF731FE00221146262033
:10272000FEF766FF2620FEF755FF06B010BD00003D
:1027300000440040001002402DE9F8430446406F79
:102740001F4616460D4620284FD1CDB1C6B194F88C
:102750007000012849D0012084F870004FF0000873
:10276000C4F87C8021206067FEF7DEFEA4F850608C
:102770008146A4F85260A068B0F5805F03D004E001
:102780000120BDE8F883206928B12E465FF00005DE
:1027900084F8708010E00026FAE78021204600F0DF
:1027A0008FFCB8B9C6B116F8010B21680885B4F8DA
:1027B0005200401EA4F85200B4F852004B464FF0AD
:1027C000000200970028E8D14FF04001204600F0B9
:1027D00077FC30B10320D4E735F8020BC0F30800D2
:1027E000E3E7202060670020CBE70220C9E77047BD
:1027F000FEE700EB8100006E00F0F8407047806853
:10280000C0F3C00070478068C0F380007047C068A4
:1028100010F4406F01D0002070470120704704235E
:1028200003EAD15310B518444369C1F30451072496
:102830008C40A3438A401343436110BD00EB8100E9
:10284000016E21F0004111430166704730B587B039
:1028500018216846FDF703FD154814490024C0E916
:10286000001484600425C460C0E9044504764476FD
:102870000121C16180F82040C0E90914C46280F8D8
:102880003040446380F83840FEF716FB094800905A
:102890000620CDE901047F200594CDE903056946B2
:1028A0000348FEF70FF807B030BD000000000450E9
:1028B0004C0700202000F01410B588B00024134805
:1028C0000094019402940394049405940E49069490
:1028D000016042F21071C0E901140821C0E903143B
:1028E00044618461FFF742FC4FF4805000906946D8
:1028F0000648FFF78BFC2020049004A906940348A7
:10290000FFF7FEFB08B010BD00400140D4070020D7
:102910000948084901604FF4165141600021816067
:102920000C22C160C0E904128161C161016241628F
:10293000FFF794BE0044004014080020014800F056
:10294000BBBF0000E40B002010B5ADF5407D4FF497
:102950003B721B496846FDF769FC0020194A1A4B77
:102960001A4908E002EB800494ED000A03EB8004AE
:10297000401C84ED000A0C68A042F3DB14491248A5
:1029800000F0C8FF124BFAEE040A4FF0FF300021AE
:102990000DF53B7203EB810494ED000A02EB810418
:1029A000B4EEE00A84ED000AF1EE10FA02DDF0EE7A
:1029B000400A481C491C0529ECDB0DF5407D10BD83
:1029C0003460000894080020740D002000600008A6
:1029D00060100020FEE77047704700002DE9F041CD
:1029E000444C05468846E0680026810728680DD0DB
:1029F000E16801F00301814216D1A8B1E06869687D
:102A0000C0F30210401C88420ED120E0012804D0FF
:102A1000022805D0032807D108E02168890701E0D2
:102A200021684905002907DB01265FE02168890349
:102A300002D421684903F5E7E1686A686FF00F0383
:102A400021F0730103EB021211430143E16020689E
:102A500020F080602060FEF767FD074605E000BFBC
:102A6000FEF762FDC01B022837D820680001F7D4AA
:102A7000B8F1000F18D0B8F1010F1DD0287D4FF02C
:102A80007E41400801EB4060A96840EA01202169CD
:102A9000194A114008432061206840F0806020609E
:102AA000FEF742FD07461AE0A868297B000240EACB
:102AB000C1602169114AECE7288A1149400801EBFD
:102AC0004050A96840EA012021690E4AE1E700BFB1
:102AD000FEF72AFDC01B022801D9032606E0206864
:102AE0000001F5D52069A969084320613046BDE899
:102AF000F081000000100240FF80FFF9FF80FF0717
:102B00000000E0FFFF809FFFF8B51C4D0646002443
:102B1000A86DC00002D5FEF7D1FD0DE0A86D40F014
:102B20008050A865A86D00F080500090FEF7C6FDAB
:102B3000A96D21F08051A965B0F5007F04D0802EE9
:102B400007D94FF003040AE0802E08D9A02E01D83F
:102B500004E001D1022402E0702E00D101240848D3
:102B6000016821F0070121430160006800F00700BF
:102B7000A04201D00120F8BD0020F8BD00100240A5
:102B8000002002407047FEF7D5BC2DE9F041ACB003
:102B9000442115A8FDF763FB142126A8FDF75FFB70
:102BA00054216846FDF75BFB60204FF010081D9034
:102BB00001240026CDF85480CDE91B460225CDE93D
:102BC0001F540727CDE9237514202595CDE9214011
:102BD00015A8FEF7C7FF0F2026900320CDE9270692
:102BE000380229904FF4C0602A90022126A8FEF7EF
:102BF000B3FE44F202000090C0061290019400114E
:102C0000CDE906500996CDE90475CDE9024868463C
:102C1000FEF75CFD6002FEF71DFD2CB0BDE8F08103
:102C20000D48016841F4700101600C48016841F0F1
:102C300001010160002181600268094B1A400260B5
:102C40008214C260026822F480220260816102491B
:102C5000C00380390860704788ED00E00010024032
:102C6000FFFFF6EA0148FFF740BB0000D407002051
:102C700070B50268164B4FF08046984201D0B042C2
:102C800003D122F070044A682243124C124D98423C
:102C900005D0B04203D0A04201D0A84203D122F413
:102CA0004076CA6832434E6922F0800232430260A5
:102CB0008A68C2620A688262984203D0A04201D048
:102CC000A84201D1096901630121416170BD000081
:102CD000002C0140004001400044014010B58468D0
:102CE00042EA032224F47F440A432243826010BD57
:102CF000826822F070020A4342F007018160704747
:102D000010B5036A046A24F001040462846924F0A3
:102D1000F00444EA021423F00A020A4384610262C6
:102D200010BD10B5036A23F0100303628369046ABF
:102D300023F4704343EA023224F0A00343EA011172
:102D40008261016210BD90F82410C90706D00168A5
:102D50004A68836A22F400321A434A6090F82410C9
:102D6000890706D501684A68C36A22F480321A438B
:102D70004A6090F82410490706D501684A68036B39
:102D800022F480221A434A6090F82410090706D5DD
:102D900001684A68436B22F400421A434A6090F883
:102DA0002410C90606D501688A68836B22F4805214
:102DB0001A438A6090F82410890606D501688A684B
:102DC000C36B22F400521A438A6090F8241049061B
:102DD00011D501684A68036C22F480121A434A60D4
:102DE000016CB1F5801F06D101684A68436C22F47A
:102DF000C0021A434A6090F82410090606D50168FB
:102E00004A68806C22F4002202434A607047F8B599
:102E100000260446C667FEF787FB05462068006863
:102E20006FF07E47000708D52B4600224FF40011B3
:102E30002046009700F044F960B920680068400718
:102E40000AD52B4600224FF480012046009700F05F
:102E500037F908B10320F8BD20206067A06784F827
:102E600070600020F8BD10B5806A0021A0F85A10EB
:102E7000A0F85210FFF740FB10BD01680A6822F469
:102E800090720A6001688A6822F001028A6020213B
:102E900081670021016670472DE9F0410446006812
:102EA0002369A268E5691A43636900272B431A4323
:102EB0007A4903687A4D2B401343036020684268C7
:102EC000E36822F440521A4342602268A0698A42B1
:102ED00001D0236A1843936823F43063034393605B
:102EE000704B226870489A420DD1D0F8880010F0DB
:102EF000030006D0012838D0022834D0032821D17D
:102F000035E001251FE0694B9A420BD1D0F88800CB
:102F100010F00C0025D0042827D0082823D00C2836
:102F200010D124E08A420DD1D0F8880010F440601E
:102F300017D0B0F5806F18D0B0F5006F13D0B0F592
:102F4000406F14D010255A4B00264FF400408A429F
:102F500045D175B1022D0FD0042D0FD0082D18D1F9
:102F60000FE00025EFE70225EDE70425EBE7082554
:102F7000E9E7FEF781FD03E0184602E0FEF7A0FD59
:102F8000A8B3626802EB4201814202D8B0EB023F73
:102F900001D901276FE0DFF81C815DB1022D0CD053
:102FA000042D13D0082DF4D150082905401846F1FE
:102FB000000105E0FEF760FD0AE050083E49F5E734
:102FC0000023FDF7FFF8A0F5407150E0FEF778FD13
:102FD0006268010E0302500818187141F0E7E169B8
:102FE0004FF6EF7881422FD1092DD2D200E042E096
:102FF000DFE805F006092005230505052600C8E7DA
:10300000FEF73AFD01E0FEF749FD4100D4F8040067
:1030100001EB5001B1FBF0F080B2A0F1100141458D
:10302000B7D84FF6F0710140C0F342000143206869
:10303000C16020E021496068EAE7FEF741FDE4E76E
:103040004FF480316068E3E7092DA2D2DFE805F094
:10305000060918051E05050520009AE7FEF70CFD78
:1030600016E0FEF71BFD13E080B2A0F11001414510
:103070008FD82168C860266638466666BDE8F0814C
:10308000606803EB5001B1FBF0F0EDE7FEF718FDCF
:10309000616800EB5100B0FBF1F0E5E70080004013
:1030A000F369FFEF00380140001002400044004087
:1030B0000024F400FFFC0F00000024F40048E801A5
:1030C0002DE9F0479A4617460E4604464FF0000990
:1030D0004FF02008089D39E0681C37D0FEF724FA2D
:1030E000A0EB0A00A84222D80DB320680168490766
:1030F0002CD5C069C043000528D421684FF4006076
:1031000008622068016821F4D0710160206881683C
:1031100021F001018160C4F87480C4F87880C4F89B
:103120007C8000BF84F870900320BDE8F0872068A1
:10313000016821F4D07101602068816821F00101EB
:103140008160C4F87480C4F87880EBE72068C069B7
:1031500036EA000004D00020B842BDD00020E4E7E9
:103160000120F9E70148FFF7C9B900001408002061
:10317000FEE700000FB4084B10B504A902AA03989B
:1031800000F0E8FA044602A9002000F090FB204677
:1031900010BC5DF814FB0000AF38000841000802C5
:1031A00018BF04200A0E18BF40F001004FF07F4204
:1031B00032EA010108BF40F00200012808BF0520E3
:1031C00070470907090E002804DB00F1E02080F8B1
:1031D0000014704700F00F0000F1E02080F8141D8B
:1031E0007047000010B510EE104A4FF019406849C2
:1031F000002200EB44002DED028B884257D8DFED12
:10320000650A14F0004F60EE200A14BFBEEE001AEB
:10321000B6EE001A71EE200AFDEEE00A10EE900AFA
:1032200000EE900AF8EEE00A9FED5B1A00EEC10A8C
:103230009FED5A1A00EEC10ADFED590A9FED591AA7
:1032400000EE201ADFED580A40EE010A9FED571AF2
:10325000574B00F0030100EE201A21EE000A7B44D8
:1032600003EB8103D3ED000A524B7B4403EB810354
:1032700093ED001A504B41EE000A7B4403EB8101B1
:10328000801091ED000A70EE800AEABB00EE100A91
:10329000B8EEC01ADFED491A9FED490ABDEC028B6A
:1032A00001EE210ABCEEC00A20EE200A10BD4FF04C
:1032B000FF40A0431BD04FF0CE40B0EB440F82BF85
:1032C000B7EE000ABDEC028B10BD3E48B0EB440FD8
:1032D00028BF012293D2022000F09CF814F0004F86
:1032E00015D0BDEC028BBDE8104000F07BB814F5A2
:1032F000000F02BF9FED340ABDEC028B10BDBDEC88
:10330000028BBDE8104000E007E000F05FB8BDECC4
:10331000028BBDE8104000F05DB800EBD07359108F
:103320004FF07E5202EBC15100EE101AA0EB630089
:1033300002EBC05060EE200A00EE100A20EE208A58
:1033400018EE100A88B118EE100AB0F1FF4F15D030
:1033500018EE100AFFF722FF042808BF00F042F819
:10336000B0EE480ABDEC028B10BD022000F052F80E
:10337000BDEC028BBDE8104000F034B8022000F034
:1033800049F8BDEC028BBDE8104000F023B8000006
:103390000000501E3BAAB8400070313EF4FD0537D6
:1033A00012BB2A3D12BB2A3EFFFFFF3EFFFF7F3FBD
:1033B000363100003A3100000A3100000000004BB5
:1033C00000007E4E0000A0850000000030EE000AE4
:1033D000704700009FED020A20EE000A70470000CF
:1033E000000000709FED020A20EE000A7047000006
:1033F0000000001002E008C8121F08C1002AFAD11C
:1034000070477047002001E001C1121F002AFBD164
:10341000704700000149086070470000F80600206E
:103420002DE9FE4F92460F46040004D0B4F8480040
:1034300020B1E56C03E0002000F0F9B80025002081
:10344000E082A082207BC043800702D0302211217D
:10345000DDE0DFB3D5B32888C0B3B7F80490002609
:1034600059E0A868006800EB0610019055D068B3D9
:1034700006EB4600029007EBC00000900389DBF8E2
:103480001820C1889E46C0684B43D2F804C043430D
:10349000634519D8DBF80C30D3F80C80884513D17C
:1034A000D3F80880F0450FD1596881420CD16146AC
:1034B000106800F051FADBF80C10DBF81420C96832
:1034C000D2685143884204D2182200E025E012213C
:1034D0009DE0DBF81800006800F05EFA20F07E4105
:1034E000029857F8300020F07E40814201D0192226
:1034F000EBE70098006980B10098808878B1494670
:10350000484500D208468146DDE900105A4600F0E1
:1035100091F8761C2DB1288804E01722D5E72122E6
:10352000D3E70020B04206D9686820B150F826B031
:10353000BBF1000F95D1BAF1000F0AD0B4F84800E2
:10354000012808D9E56C0C3505D0288818B100276A
:1035500059E0012070E7182258E0A868006800EBE5
:1035600007183BD0B8F1000F38D007EB47000AEB43
:10357000C00101900A89D6F818C0C8888B469646C3
:10358000CB684243DCF804105A438A42E3D8F2681D
:103590000092D2688242DED1009882687245DAD108
:1035A000009840689842D6D1DCF8000000F0D4F9C9
:1035B000F1687269C968D26851438842CBD3B06957
:1035C000006800F0E9F920F07E4201985AF83000D6
:1035D00020F07E40824203D0192217E0172215E026
:1035E000DBF810000028F9D0BBF8040068B14946A8
:1035F000484500D20846814659463246404600F0CA
:1036000019F87F1C3DB1288806E0212213212046AD
:1036100000F076FC0FE70020B84205D9686818B1C1
:1036200050F82760002E98D1A4F8149091E71EBCA2
:10363000BDE8E08F30B5D368DC685369DB685C4374
:1036400084608B886343C3600C69446009691944D2
:10365000016091690B689B0007D4D1E902355B1BBF
:1036600023448B6091694068C86030BD70B50546E1
:10367000002621E0A9688369096801EB061419682E
:10368000890005D5D4E901129868FCF7CFFD08E060
:10369000D3E90212891A62681144996080696168ED
:1036A000C160D4E90101084460602168884201D307
:1036B000E068081A761C60600DB1288800E00020E0
:1036C000B04206D96868002803D050F826000028C8
:1036D000D0D170BD2DE9F041054600262BE0A96848
:1036E000096801EB061481690A6892000FD5A26887
:1036F00089686068FCF79AFDD4E9011001446160B3
:103700002068814201D3E168411A616012E0D4E986
:103710000112114461602268914201D3E168511A9B
:1037200061608269D2E90237DB1B194491608069CC
:103730006168C160761C0DB1288800E00020B042AD
:1037400006D96868002803D050F826000028C6D1A2
:10375000BDE8F0812DE9FF4F89B09B460446002566
:1037600006E025280BD05A460B999047641C6D1C27
:1037700020780028F5D10DB0284600F095B8002734
:10378000B8460122474900E0074314F8013F203BB7
:1037900002FA03F00842F7D120782E2819D114F844
:1037A000010F47F004072A280ED06FF02F0220786F
:1037B000A0F1300109290CD808EB880102EB410186
:1037C00000EB0108641CF2E70A98641C50F8048BB3
:1037D0000A9020780028CED0642808D0692806D026
:1037E00075281ED05A460B9990476D1C58E00A99CF
:1037F0004FF00A0901C90A91002802DA40422D213E
:1038000002E0390504D52B218DF82010012103E0B9
:10381000F90704D02021F7E78A4608AE0DE0002121
:10382000FAE70A994FF00A0901C90A91F7E74946F0
:10383000FCF741FE303106F8011D0028F7D1ADEB51
:10384000060000F12009780701D44FF00108C845AF
:1038500002DDA8EB090000E000208046002706E01A
:1038600008A85A46C05D0B9990476D1C7F1C5745B0
:10387000F6DB04E030205A460B9990476D1CB8F1F6
:103880000001A8F10108F5DC05E016F8010B5A4625
:103890000B9990476D1CB9F10001A9F10109F4DC05
:1038A000641C65E70928010030BCBDE8C08F0A68C8
:1038B000531C0B601070704710B58CB0044630225A
:1038C00012496846FCF7B2FC00F01CFA0490002193
:1038D0000A940F4800F00AFA10F0FF0F03D04FF0DF
:1038E000FF300CB010BD0A4C6946206800F012FA97
:1038F00008B10020F5E7206800F00AFA206800F01F
:1039000005FA00202060801EEBE70000046000083C
:10391000B406002070B5B8B1B1B10E4C23689BB1AC
:10392000251D0122AA80286104F11C00828001610A
:103930000246211D184600F019FA012807D0206818
:1039400000F0E6F9000A70BD4FF0FF3070BD0020B6
:1039500070BD0000B406002099B1C0F3C612C0F3D8
:103960008233134403FB01F2D21D22F00701C0F39E
:103970004152D140C0F34340042804D0082807D165
:1039800004E00020704701EB031101E001EB03218B
:10399000C91DC8087047000030B54021C0F343423C
:1039A000022A18D02E4A20F07E44A31A0D01944218
:1039B00047D024DC2B4AA4EB0203944241D017DC0D
:1039C000402C42D0403CB4F5802438D0AC423CD1AD
:1039D0002449C91F39E0C0F3C051C905C0F3C6125C
:1039E00041EAC21100F07F02114341F480212CE032
:1039F000A3F54073F93B16D00F2B26D123E0B3F586
:103A0000006F14D006DCAB420FD0A3F58063073BF8
:103A10001BD10EE0A3F500630F3B0DD0124AD34239
:103A200013D1124911E012490FE012490DE0124979
:103A30000BE01049C91D08E00F490F3105E00F499F
:103A400003E0114601E00A490F3100F080420A43C9
:103A500000F00051114300F00060084330BD000049
:103A600040008400470404000FF801FF4010820169
:103A70004008040040048400400884004000040022
:103A800008B509A10968009148B101789DF80020A6
:103A9000914204D104226946FCF7F3FB08B10020EF
:103AA00008BD012008BD000003840484F0B5059D15
:103AB00025F0010403EB84069FED460AEF085AE067
:103AC00051F8044BD3ED002A04F0FF0C4FEA1C1E02
:103AD00002EB8E0E0CF00F0C9EED002A02EB8C0C0C
:103AE00002EE220ADCED001A93ED012AC4F3072C42
:103AF0004FEA1C1E02EB8E0E01EE820A9EED001AAA
:103B0000D3ED021A0CF00F0C02EB8C0CD3ED042A4F
:103B100001EE210ADCED000A93ED031AC4F3074C11
:103B20004FEA1C1E02EB8E0E00EE810A9EED002A6B
:103B30000CF00F0C02EB8C0C240EDCED001A02EEE4
:103B4000220A93ED052A4FEA141C02EB8C0C04F0B8
:103B50000F049CED001A01EE820AD3ED061A02EB67
:103B60008404D4ED000A01EE210A93ED071A2033F4
:103B70007F1E00EE810A002FA2D115E011F8014B43
:103B800093ED001A270902EB870704F00F04D7ED25
:103B9000000A02EB840400EE810AD4ED000A93EDE2
:103BA000011A083300EE810AB342E7D3EC0709D0CB
:103BB000097893ED001A090902EB8101D1ED000AA1
:103BC00000EE810AD0ED000A30EE800A80ED000A96
:103BD000F0BD000000000000F0B59FED380A059D23
:103BE000EE0851E051F8044BD3ED002AE7B202EBA6
:103BF0008707D7ED001AC4F3072702EB870701EE0A
:103C0000A20A97ED002AD3ED011AC4F3074702EB8D
:103C10008707240E02EE210A97ED001AD3ED021A4F
:103C200002EB8404D3ED042AD4ED000A01EE210A4C
:103C300093ED031A51F8044BE7B202EB870700EE4D
:103C4000810A97ED002AC4F3072702EB8707D7ED17
:103C5000001A02EE220A93ED052AC4F3074702EB8D
:103C60008707240E97ED001A01EE820AD3ED061A9B
:103C700002EB8404D4ED000A01EE210A93ED071A49
:103C80002033761E00EE810A002EABD105F007042A
:103C90000BE000BF11F8015B641E02EB8505B3EC7D
:103CA000011AD5ED000A00EE810A002CF2D1D0ED08
:103CB000000A30EE800A80ED000AF0BD000000002E
:103CC00010B5016904468847E068A04200D1002091
:103CD00010BD10B50446006D002805D06065FFF7E3
:103CE000EFFF60650028FAD110BD00001CB500236D
:103CF0000322CDE900230123014A00F047F81CBD4F
:103D00004404002000487047DC45000800F076B805
:103D100000F07EB810B50C4600F088F8002821D0DD
:103D2000214600F0EDFAA16A0F4A0023C91C9360F6
:103D3000D360103221F003019160D16010320A4C3F
:103D40009160D160303401F1C802A260E2601034A9
:103D5000A260E26004F110029160D16002F11001F2
:103D60008B60CB6010BD0000D403002000F09DB834
:103D700010B518B1044A0168914200D000200446F1
:103D8000FCF77EFD204610BD0001C0A12DE9F843DF
:103D90000546DDE9081091461A0642EA01414FF056
:103DA000000841EA00274446FCF76AFD0F4E65B162
:103DB0000F49C9F80010C5F8009000F0BAF838B102
:103DC0000C48874206D974680CE0F069BDE8F883B6
:103DD000346807E008A0006800906846FFF750FECE
:103DE00010B9B468C5F800802046EFE768630008A2
:103DF0000001C0A1000003010384048410B504463F
:103E0000FFF7B6FF08B1002010BD204610BD00002E
:103E100010B5FFF7ADFF20B1BDE81040103000F045
:103E200082B80148806910BD6863000870B50C460F
:103E3000FFF79EFF050004D02CB12169A06A28B1CC
:103E40000CE0002070BD1122102111E0208CE28BCB
:103E50005043626A504301D0132207E059B92089C8
:103E6000E1884843E168484305D0122210212846E2
:103E700000F046F8E5E71822214605F11800FCF7A6
:103E8000D5F9182204F1180105F13000FCF7CEF93C
:103E90000320E860286D30B18560C168814202D09E
:103EA00009B10846F8E7284670BD70B515460E46BC
:103EB000FFF75EFF04462A463146FFF7B1FA0028B5
:103EC0001DD0B4F8480008B1E56C00E000250128D9
:103ED00002D9E66C0C360DE000260BE02846FFF711
:103EE000C5FB2046FFF7F5FE3046FFF7F3FBE08AFF
:103EF000401CE082E08AA18A8842EFD380B270BD84
:103F0000002802D0103000F016B870470246006852
:103F1000010A012004E05368491E53F82130584338
:103F20000029F8D17047002201680270026008463B
:103F3000704701207047037813F0FF0F01D0002075
:103F400070470170016862F31F2101600120704712
:103F50002DE9F04F406988B0018809B1426800E05E
:103F60000022526832B109B1426800E00022526872
:103F7000136800E00023012902D942680C3200E0F6
:103F8000002252683AB1012902D942680C3200E09D
:103F9000002252681268022902D94468183400E0ED
:103FA000002464683CB1022902D94468183400E056
:103FB0000024646824680229A1460BD9406810F1E6
:103FC000180F07D030F8181F012903D9406810B125
:103FD000406800E000200590D868D168D0F80480DF
:103FE00048680490D1E9020148430790D9F8184085
:103FF000002120680191C0F3C611C0F34155E9408A
:10400000C0F343400691042801D0082801D1E0689C
:104010000190D9F814004FF0000A406803909069AD
:1040200085689869D0F808B0049805EB80079FED83
:104030003B3A6DE0D9F818008468059810B18069A2
:10404000866800E000260198C8B958E016B1B6ECC1
:10405000010A01E0B0EE430A8DED020A0698019ACA
:1040600004285B46CDF80080214602A80AD0FFF75D
:10407000B3FD03989DED020A0444A5EC010ABD427C
:10408000E4D33EE0FFF712FDF3E716B1F6EC010AC8
:1040900001E0F0EE430A204659464246B0EE430A9C
:1040A0001BE000BF90ED001AD1ED001A01EE210ACD
:1040B00090ED011AD1ED011A01EE210A90ED021ADC
:1040C000D1ED021A01EE210A90ED031AD1ED031A87
:1040D00010301031121F01EE210A042AE2D206E04C
:1040E000B0EC011A521EF1EC011A01EE210A002A6D
:1040F000F6D1039830EE800A0444A5EC010ABD42D3
:10410000C3D304980BEB880B07EB80070AF1010A75
:1041100007998A458ED308B000F002B8000000006D
:1041200030BCBDE8C08F70B505464069018809B153
:10413000426800E00022526832B109B1426800E0F2
:1041400000225268146800E00024012902D9426864
:104150000C3200E00022526842B1012902D94068C5
:104160000C3000E000204068066800E00026A869E6
:1041700078B14068012804F1080016D0FFF7C6FEA8
:104180000246A869A1698368B069BDE8704000F083
:104190001DB904F10800FFF7B9FE0246A169B06934
:1041A000BDE87040002300F0F1B8FFF7AFFE024613
:1041B000A869A1698368B069BDE8704000F066B97C
:1041C0002DE9FC414069018809B1426800E0002204
:1041D000526832B109B1426800E0002252681468A6
:1041E00000E00024012902D942680C3200E00022DC
:1041F000526842B1012902D940680C3000E0002029
:104200004068056800E00025E0684668E86847689F
:1042100004F10800FFF77AFECDE900670246A169C4
:104220003346A86900F054F9BDE8FC8186B0FDF77B
:1042300089F9FEF7AAFC14216846FCF710F8284813
:10424000C16C41F00101C164C16C01F00101059133
:10425000C16C41F00201C164C06C224E00F002004A
:104260000590002208213046FDF759F908200090FA
:1042700001250024CDE90154694630460394FDF739
:104280007DF8FEF7E3FA194817490160047144719B
:10429000446105628461FCF7FBFFFEF739FBFEF722
:1042A0000BFBFEF74BFB11482430FDF799FF104D37
:1042B0004FF47A7628880028FCD0FEF745FB0246AA
:1042C0002C800CA10D48FEF755FF0C48FBF7D2FFE0
:1042D0000A4982B23346A1F55B70FEF72DFAE9E791
:1042E000001002400004004800300240B0070020E7
:1042F000A406002025640D0A00000000800B0020A9
:10430000086921490A6842F080420A6041F6102299
:1043100002448A60CA6010310A6842F080420A6032
:1043200041F6901202448A6041F650120244CA607B
:1043300010310A6842F080420A6041F68802024465
:104340008A60CA6010310A6842F080420A6041F215
:10435000A43202448A6041F264320244CA601031DD
:104360000A6842F080420A6041F29C2202448A605C
:10437000CA6010310A6842F080420A6000F14002CF
:10438000C1E90220012070477403002010B56FF0CE
:10439000030303EB82038C688068E2181844DFEDA6
:1043A0000A0A0CE092ED000AB5EEC00AF1EE10FA2E
:1043B00001D2B0EE600A80ED000A001F121F8B6868
:1043C0009342EFD910BD000000000000D3ED021AA7
:1043D00093ED000A93ED011A6FF00303F5EEC01A96
:1043E00003EB82038A688068F1EE10FA1A441844DD
:1043F00045D2B5EEC01AF1EE10FA10D113E000BFAD
:10440000D2ED000AF4EEC00AF1EE10FA03D270EE1B
:10441000C00A60EE810AC0ED000A001F121F8B68FF
:104420009342EDD970479FED181A0CE0D2ED000AC7
:10443000F4EEC00AF1EE10FA01D2F0EE410AC0ED3E
:10444000000A001F121F8B689342EFD9704700BF0C
:10445000D2ED000AF4EEE10AF1EE10FA09D2F4EE20
:10446000C00AF1EE10FA06D270EEC00A60EE810AC0
:1044700001E0F0EE610AC0ED000A001F121F8B6818
:104480009342E5D9704700000000000010B5D3ED5D
:10449000000A6FF0030303EB82038C688068E21864
:1044A00018449FED0A1A0CE092ED000AB4EEE00AFF
:1044B000F1EE10FA01D2B0EE410A80ED000A001FC1
:1044C000121F8B689342EFD910BD0000000000005E
:1044D0002DE9F047064688680C46DDE9089800EBB0
:1044E0008201B068A1EB890500EB82019A46A1EB3D
:1044F00088070BE0A5600023524621463046B7608E
:1045000000F00CF8A5EB8905A7EB8807E068A84246
:10451000F0D9A060F068B060BDE8F0872DE9F04107
:1045200015462DED028B8E688768DFED1F8A96EDAC
:10453000008A01200CE000BF06EB800191ED000A2B
:10454000B4EEC80AF1EE10FA01D3B0EE408A401C76
:10455000A842F1D300240EE006EB840090ED000A9F
:1045600030EE480AFEF73EFE07EB840070EE288A24
:1045700080ED000A641CAC42EED3F7EE000A002086
:1045800080EEA80A09E000BF07EB8001401CD1EDD6
:10459000000A60EE800AC1ED000AA842F4D3BDEC27
:1045A000028BBDE8F0810000000000000400000064
:1045B000B401002004000000F40100200400000009
:1045C00038020020040000007802002004000000EF
:1045D000BC02002004000000FC02002022AA95C0BA
:1045E000E0BF83C04BE864C0A54736C0F9BC10C02B
:1045F0009772E4BFEC2FA3BF46C656BF746AECBEE9
:10460000934A0DBED666ED3D1BE3D73E7CF7443F93
:104610008F0A9B3FD816E83F73D11B40AAABA999DC
:10462000B9B88AB9ABAAABA9A9AA9987778887999B
:10463000A89BBAAAAABABBBCDDCCBBACBA89A8A954
:1046400086789867899AA889BDBA9A98767ACBB9FC
:104650008DBA8BBAA89A898999988AB898DCA98664
:10466000578777ABCABCCCCAB8767678A9A9B9A85F
:1046700099BCDDBBDCAA8CA87A80B8F66DEFDB9A1A
:1046800097898899A9AA99A999ABAA8ABA9BBBBC10
:10469000ACB9AA98999988888987788AA99AAAAB87
:1046A000A989BCBAAA87AA9999A89AAABA9AAAAAC1
:1046B0008AAB889A89A99AAAACBA89889AAAB99A1F
:1046C000A9B9A899BAA98AAA878AACCCAAAAA99A90
:1046D000997878ACCDBB9760CB86BDAABA99B89BC8
:1046E000BA999A9A88A88887A9AAABACCBBCBAAA6F
:1046F000A88988799CCB9999A88988AAAABCCCAAB0
:10470000A988868988BABBBCCB867988789BABBBE5
:10471000C9ACA997AA9A9ABBABA9ABCC9786667885
:10472000AAAABDBAB9ABAAA9A8AAAA9A9A9ABBA8DA
:10473000ABBABBA99A90999A9999999AA9A999A95A
:10474000A99AA999999AA99A9A99AA99A9AAAA9962
:10475000999999AA999AAA99AA99AA9AA99A999A71
:104760009AAAA9A9AA9AAA9AA999A99999A9A99923
:10477000AA99999A99999AA9A99AAAAAAAAAAAAA0F
:10478000AA999AA99999AAA99AAA99AA99A9999923
:10479000999999A0BBB6BEDA768977788999AA9A51
:1047A000BBCBBBCCA8897767788988BCA9ABBABBDF
:1047B000B99AAABCBBCBCCB9A9AA9AA8989AA9A91C
:1047C00088A9BB99B9ABBA9B9AAAAA89ABA979ABBC
:1047D000AA9A99ACABBA88675598889AC9AA899B56
:1047E000CDCFED9B8676433556676988999BCDCDB5
:1047F000DEE0C9788CDEECADDEECCAAB987777688A
:104800007778777788889988999A99A99BBAA9988F
:10481000AA989BABB999AAB8899A99AC7AAABAB95D
:104820009AAAAAA9AAAB9AA988B9AAAA99B99B884F
:10483000979AA9BA9A889CBBBAAA899B8C99BCAA58
:10484000C99BB9788989AACCCB9B78888BCCCC9032
:104850008CB57CCAABB98788888878866667888873
:10486000AABA9888889A888898898A9889A89BCCB7
:10487000BCBABCAABCAAABAA988ABBBAA9AA9ABC61
:10488000CA9B99AA9A99ACCBABCCCCACCBCBABCCDA
:10489000CAABBAA9A9BBBAAB9A99BC9AABA9AA9957
:1048A000BB99ABC9989AAA89CBAABBDBCCC056C925
:1048B00069DECCA9888888AAA9887877789ABBCC41
:1048C000CBAAA99999A9AABBA999998878AAAABBA0
:1048D000BBBBABBCCB9CBCAB9A889879AABA9ABA42
:1048E0008AAA9BBBBBA9997BAB9ABAAA9999A9AA98
:1048F000CB99A8ABABB99ACCBB9B8A8BBAACCBAAF1
:10490000B898AA9A9A9B9889888A8880CD53DEA9FC
:1049100089BBBBBBB99899898877677789BBBCAAE3
:10492000BBBBBBBCBAAA9A999899989999AAABAB08
:10493000B989999A9ABBBABBAA99AA9999BC9AAA19
:10494000A9B988789BA8A889BABAA9AA99A9AAAB33
:10495000ACBAA999BA88BA9979789BBAAA9AB8993F
:10496000998999889AAAAABCBDD0B59AD975786751
:10497000898A9AABA888A989A999AABCCCCCBBBCC6
:10498000CCBBBAA99ABBA999878777898888997877
:10499000779A8898AAABB9ACBBAAA9ABBB9ABC9BC7
:1049A000ABAAAB9B9A9CA9878A9989B877889BAC5C
:1049B000B999ABCBBAABBAABAAA8B8ABA979AAA93B
:1049C0008A9ACA99ABACBAA0A7787679BC8ABBBBE5
:1049D000BABCBCBCAAB9877777877788888989AB46
:1049E000BAA99CBA98899BCCABCCBBBCCBBB8AABDD
:1049F0009AAAA99A878BA887ABBA99987AA9888925
:104A0000ABBAA9AB9BCCBCCCCCA878BB77898B9933
:104A100099AAABCCC9A778BB8989989AAAB99A995F
:104A20009988779767707887458BDEDCDCBBAA892D
:104A3000A99A9877889ABDDDCBBAA9898A9AAAAB38
:104A4000BBBA9899ABABAAAAA89A888999BBBBBCF8
:104A5000BAB88A88A99BBC97798679BC966775573E
:104A600077799ABAAAA9ABCCBABDBBBCBBAAAAA992
:104A70008A89988AABB879AAA9AAABB999AA888970
:104A8000889AABC0DAAD89B88ABA979CABBACCBB6E
:104A9000BBA9876876899ACCCBBCBBAAA9AA999AEC
:104AA000988989AB9BA989AA999989A9A889989875
:104AB000989899999BAAA9679BBAAD97789CBBAA2D
:104AC0009B99BA8AAA7B987ABCACA8999AACA99807
:104AD000AAACBB8A89B9798A9AAA8ABBAA99AB9AE5
:104AE000A970DD885146688A9BBB8787876778797C
:104AF0009ABDCCCBBAA99BA99BABABBBA998887933
:104B0000AA98898898AAAAABAA9BABABBCB9B89A59
:104B10009ABBB9B99B8AABA99A9AA98AAB999B9976
:104B200079B9AB8777AAC9AAAABBB8799A9988BB81
:104B3000CCDAABBBBAAABAAA8978999AAABCA980DE
:104B4000D87878BB779B99AACBAAB99A9AAA9AAB3C
:104B5000BBAA889AABBAA8988999AAACBABB9AACF6
:104B60008899A8BA9AB98A88988AA988A9B9998887
:104B7000BBBCCCCBAAA89A89779B9988AB99989B08
:104B8000A68978BBAACAAAA867677789CB99ACCC53
:104B9000BBA98878ABCA998888999998888069DD7B
:104BA00088B979ACCBBAA9978877788989AABABA33
:104BB000898899BBABBCCBBCBAACCAA999BAAAA923
:104BC00099A9BA97999978998AACCCCA767889AA22
:104BD000CBBCCB8AA9CCCBA888776667869777872A
:104BE0008AAACBBBABBAABABBCCBAAAABB89999800
:104BF00099BBCCCBBBBB899BB9AAAA90CDB977870F
:104C00008BBCA9AA99888777789ACCAAA9AAAABBAB
:104C1000BABCAAA88888889BCA9BAAAAAAB9BBCCF6
:104C2000CBB988A9A898899888A9AAA8889AAA9A85
:104C30008A68AA8ABB8BA989A888CA9AB88AAAABAB
:104C4000C9BB8988A87BBC9AAAAA97ABB8A99A992C
:104C5000ABA9AAC99999AA878770B67DC879A877A0
:104C600087789AAABAAAAABAAA98989999BBBCCCEA
:104C7000AAA9ABBCBAAA877AABBBCA99A9ABA99AB5
:104C8000AABABBB96666678AABBBCBBBBCB9BA89EB
:104C900099AA8ABB9A9BA8AC9A89BB866889CAA73D
:104CA0009AA9AABDCA89A86B64479999BC8898AC8F
:104CB000CBB9EDDA796666609BBDBCEDDBC9889740
:104CC0008887867475346568AACCCBA89AB899BBD6
:104CD000BAAAABA9BABA879AAAAAA9ABBAAA999949
:104CE000A999BABAA7A99A9A9988AAB999B9ABAB5E
:104CF000AAAB97BBBBABC9A99AAAC9B9A9AAA9AAC9
:104D00006B897ACB7B6579768B9888A9AABAAA99A0
:104D10009BBCB999BBC0D897ABAB88A9A8ABBBB9B2
:104D2000A9A9989899889788999ABBDCCDCABCCBD9
:104D3000BA9BBBAAAB998A998799B99898AAA9BB3B
:104D4000BA8989BA89A899A889AA8A9968BBA9BB8E
:104D5000BABA9A899899AAABAA9AA99AABA9A8991A
:104D60007688BAAB9ABCA998899999999BB989898F
:104D7000AABABBA0C7BDEDDDA889978889AAABAB4D
:104D8000AA998889988AA99AABAABBBAACBBA9ABE5
:104D9000AAA9ABAAABBAACAAB99A988A9A8AA899D6
:104DA000AB9BBA89B8799AB9AA9BACBAACC9A9B875
:104DB0009A9A998977ACAA8BAB89B99AAA9876788E
:104DC000AA8CBAABCBCAA99A98779899AA9BBA9998
:104DD000ABC0CAABB999A9988899ABAB9BABB9BB2F
:104DE000899899BBBABAABA9788A8778BDBB87780E
:104DF00079BB99AB98AC67766755567ABBCCBBCD7F
:104E0000CCBBBCB77CC798AA98AAD88CBA99BB640B
:104E100089AA789BCDC9BBBBAA77A9999AA9BBBB24
:104E200099BCCA9778AB9AAA8A988877ACCCCB9071
:104E3000A999896566768879BBABBBBBB99877665B
:104E40006668899AA89ABBAB999BAABBA9A9999BAA
:104E5000A98989BCBCCCCCBBBABCBABA9BBBCCBA06
:104E6000999989AA9AABABAACCAAB88898687A967D
:104E7000888BCDCBCBABCABA9636778999ABACBA17
:104E8000BBAB9CA9888A788998888AA9BBB0BBC922
:104E9000CC77768897888A99999999B88875666742
:104EA0008ABDCDDDDCBBA99989ABBB9AAAAAA9AB07
:104EB000AAABBBA9A9B9A9CCBBBB9987779CA99A76
:104EC0009BCB9AAA99778A989989AACBABAAA99AD7
:104ED0008AA8AAA89AA9CBBCABB9CACCCABBBAAAA1
:104EE0009B9B9BA9AAA8AAA8AB98A9709999A999D4
:104EF000AA99A9AAA999AAAA9A99A9A9A999AAAA6B
:104F000099A9999999A9AA9AA99AAA9A9AAA999AA9
:104F10009A99AAA9A9AA99A99A99999A999A99A99B
:104F2000AAAAA99AA99A9A9A9AAA9A9A9A999A9995
:104F3000A9A9A9A9A9AA999999AA999A9AAAAAAA3A
:104F4000999A9AAAA9A9A9999AA0AC954CDC7768D4
:104F5000667767799C9B9ABABBBBACBCBABBA98786
:104F60007878778A99988889ABBBCBAAAAB988BC8C
:104F700099CCBBAA9CCAABA978A88BCBAAABA9AB8E
:104F8000A99BCA9BA9898A9A8BBB9AA98BCB8A7940
:104F9000B66699AAAAAA9ABB88898A9BAA9899995F
:104FA0009889AB99AA9BBCB09C7458BBCDDBBAABBB
:104FB000BAA9ACCDCCCAB9989AA99887899BABAB52
:104FC000CBBA87889AAB9998899AB9A99B998A98FC
:104FD00078899BBBB9A9AA9AA9A99B989BAA999CD5
:104FE000AA998AA899A89BA8ACBCCBAB988899AA87
:104FF000CBBA9BC8B9B99A898ACCBB888889AAA937
:105000009AA99BAAA990999999A9999A9A9A9AAAC0
:10501000AA99A9AA99A9A9A99A9A9A9A9999AA9A88
:105020009A99A99A99A9AAAA99A9AA9A9AAA99A968
:1050300099AA9A999A9999AA9A9999AAAAA9A9A969
:10504000AAAA999A9A9A99AAAA9A9A999A99A99A75
:10505000AAA9A9AA999A9999999A9999AAA9A99A4A
:10506000A9999A906CE67AADECAACBA99A87877732
:1050700077899AAABBCDCCBBBA9AA78A998ABBAAD0
:10508000A9999AA9B9998A9ABAB88767889ABBCC1C
:10509000BACCBBAB9BB99BA9AAAB97AA99A999A972
:1050A000AAA9BB7AABBA78ACB9A989A9A9A89BA9C6
:1050B0009A9B9BBAABBAA9A998789A98998998892A
:1050C00099B0DC4277887789ACCCBCBAAABBAABAC3
:1050D000ABAABCBAA877777888AA89BAABBB9AA8DA
:1050E0007ABA88888AC888BAA999AA898AACCBBBB7
:1050F000BBBA899AA88979AACBB9999BCB9AA88A75
:10510000BBA8A98889AAABCAAAAA98A789BB87897C
:10511000ACBAACAA9999999AAAAAAAAABBCBBBA0E5
:10512000998658CCCDDCC9989889ABBCBCBBA998F2
:1051300088989BCCCCBAAA8986789ABCCBA8989937
:10514000CBAABA9AB9889AB8ABA8777776878778C6
:1051500089978BCCB9BBCCBCCBBBDBBBBABB98763D
:1051600099AA999BCCACBBBAA8887797888BABBC23
:10517000BADC988999998BB89999AA98A9A0C95726
:1051800089B87ACB988A99A9AAABBCCBAAAAA998C4
:10519000889999AAA999B99CBBACBA9898AAA9A8C8
:1051A00089A9AAAAABAA989B97788ADBA986777760
:1051B000ABBBACB899BAAAB9AB99A99BBAB9B9BB00
:1051C000A9BCAAAAAAABAA9AAAB9B9ABBAA99AA920
:1051D000AA8A89989AA99BAABAA889B05797DD7616
:1051E000874468A9BBBBABBB9A9A99AABBCCDDDC50
:1051F000CBAA9A9AAB98AAAA989A8AA9AA9A9A9B91
:10520000BA9AA99A99878BB99CB999787AABABAAC3
:10521000BA99AA98AA8C987AABAA9AAA9ABC9988A1
:10522000999AA9988888998AAA99AAB9BBABAABA67
:10523000BBAAAA89BAAA99BBBBC0A99A9A999AA9EA
:105240009A9999A999A9A9999A9A9AAAA999999A78
:1052500099999A999AAA9A9A9999A999A9A9999979
:10526000AAA9A9A999A9A9AA999A99AAAAA999A9F9
:10527000A9AA999AAA999AA99AA9AAAAA999A9A9F7
:10528000AAA99AA999A999A99AAA99AAA999AAAAE7
:105290009AAAA9A99999AAA0BBC89879A999A9AAD3
:1052A000BAABACAB99B99A88899899BAA98A989AF5
:1052B000B98998899A9A9C988888778879BCBABA6B
:1052C000AA9778A87689BA88AABCABDEDC9BBBDC3F
:1052D000CABC9AAA9AC8AB99AA888CABA9A9AB995F
:1052E000B7777756A9CDA79A89788AA9889A7AB785
:1052F0006656ABA878805AFC898ABAAAABA8AA9845
:105300009897877789AAACCCCBBAAAAAA8ABABBA34
:1053100099A8889A9998999B9999ACDCBBBBBB9941
:10532000ABAB9A8AAA998A999AB9A9AA999A89BB80
:10533000AA99989BB89AA9999BBAA8AAA9BBABA805
:10534000989ABBAABDB9BAAAC996767768787997B0
:10535000555767708AA7DCABBBABBCA9AAB99ABA90
:10536000ABBABBBAABA9ABAABCCCCAACABABA9A914
:105370008898A9AA98988A8989887699C88547675C
:10538000798D35668A4BBA9B9449A7BCA67867AAE3
:10539000B89DA77A9CD37797657776656677887688
:1053A00077AACDDCB99ABAA898978789ABCABAA967
:1053B0009AB0BB99CC868DEDCA89B889B7779858D1
:1053C000889DBBBA9A988877677555878BCB9ACC9E
:1053D000ABAA9A999BA999B9AB9A99BA9BABAA998E
:1053E000B899AA99A99BC7777797A679CA896024A3
:1053F00066666666666666667899998999998899F7
:1054000098989889899989899999899999A9999058
:10541000867EB8779ACAA9ABBCBBCBCAA897878847
:1054200089A899BBBABABABA9788AABABABDA988E4
:105430009B99989BAABBB9C9999BBC9ABCBA8B880B
:10544000669BA6689A7A5CA8C98CA9B98BB74656A0
:10545000B46888A99AB8888877888898989999981C
:105460009999999A9AAA99999AA99A9AAA90B8CD2B
:10547000B7778899797899BCAAAA99887ABCBBA988
:105480006899AB9ABBDDCACCA8576ABB876787A966
:10549000ACBBCCB99B876878BBBB9AAABBA9B979CE
:1054A000A7B9AACABA848888778889998999999965
:1054B0009AABBBAACBAABACAABBA98899ABCCBBAE8
:1054C000ABBAAABCC9A9877779A78970DB64DEBAB1
:1054D000A8979BABBABBAB9A98877899BBCBBBBA62
:1054E000AA998A88A9BAAAABAA97779AAACBBCA983
:1054F000A878898989AAACBBABAAA87789899A9927
:10550000A9A9B9AABAB89AAAA99ABA88998BAB7963
:10551000BB979B9ABBD999A887889B89ABCBBAAA22
:10552000B9999999AAAA99989AA0DA6CCCA9ACBB16
:10553000BCA98A8A9A8BAC9BAAB86668799A8A9920
:105540009BBCAA7899997786676887799A99889990
:10555000788B988878789A9A9BCCABBCCDCCBBBC26
:10556000BBABBABBABAB8BAA9CBCBBBBA9888DBB8E
:10557000B98AABA99CCBAAAA9BA879B9AABBAA8ACB
:10558000AACCBBBB9AABB9A07DEE9689CBB8AA9941
:105590009AA9A997A899BA988999887899ABC9BA0C
:1055A000BBAABBA7A899999999A9ABA9AABAB98886
:1055B000A9AA89ADBAA88B889A99AAA9ADABACB7AC
:1055C000777C887775656888A98CBBAADC89CCCB89
:1055D000B8ABBB9889BC979BBCBBBA9999BA9A984F
:1055E000BA9898768A8078ADDDECAAA7767577862A
:1055F00087AABABACAAAA99AABBBCACB9998B96A00
:10560000A98899A998889AB68799B78AB98888A9E4
:10561000AAAA988898A9AA99AA989BB9A998AABA57
:10562000BAB997A9B99998A899A9AAB9A9BBAABCC6
:10563000CA9CBCA9BBBAABBBC9AAAAAABBBC9AAC40
:10564000A778A990E7BBBCEFC879866667777788AB
:105650008899A9A9A9AACBCCBCBAAAAA9A99988ACE
:10566000BA9ABBB9998BAAB9A9A98999999ABAAAE0
:10567000899AA8AAABAABBABAB9BB9AB989B989AEB
:105680009CAAAA9BBBB99ABABAAA8BA8A99988A9BD
:10569000A99B88ABA9BA9A9AAB9A8ABAA9989A99FF
:1056A000A870DC77EEBBCCC987AAAAA9988888998C
:1056B000AABBCCBCCCAA98887988A89A9877677A34
:1056C000BBBA8AA987BAAAAABB988A89888A99ABE1
:1056D00099BA899BB8AACAB8ABA9979AA9A9CC8844
:1056E000B9799BBBB8978AA9BCBA9AA99ABBCBCA0D
:1056F000AA9A88999ABABA9BABBAAAAAA999888099
:10570000898679AA8BAA898999AABBBCCCBBBA889D
:105710008766678989AAABBBBBBBABBABBBAABAA6E
:105720008A99899888988AAB9A9BAB9BBCB8AABC8B
:10573000ABBBCCB889B88887A99A864677779A99FF
:10574000A8998889A99899AA99ABCBBBCDCDCCDB78
:10575000DC9A9ABAAAA8AAAAABA9BCB8ABB0E86A64
:10576000C765689BABCDDDCBAB999A9A9888888842
:10577000999B9AA9A9999AA988A9899999AA9AA954
:10578000ABA8AABAAAAACBCACAA99ACBBA99B98A0B
:10579000B99ABBB89AA999899A989A79979B998846
:1057A000BBA99ABB8AA9AA988999B8AAAAA9A9AAA1
:1057B000AB9BBCB99A99BCB9AAB99A80A9A9A99A74
:1057C000AA99A9999AAA9A99AAAAA999A99A9A9AD0
:1057D00099A999A9A9999AA999999AA9A99A999AD5
:1057E0009999A9A9999999A99A99AAAAA99AAA9AB3
:1057F000A9A99A9A99999A99A999A9AA9A9A9AA9B2
:10580000A9A9AA99AA9AA999A99999999A999AAA92
:105810009A9A99AAAAA99A99A9A0B9CED9ABABDAB2
:10582000756777888AAACBCDCCCCCCBBBA9989894D
:1058300099889798899A98AB98A888887778897773
:1058400099ABCCBABABAAB9A99BAAAA9998AABAAB7
:10585000999A99BB9AB9BBBABA778A89999B99AA3E
:105860009987BACED7A8A315559AABAA97599AACDF
:10587000BBB889ABAAACCB90A9D1B1BC97653BBFF3
:10588000D7EA06BFDDA084BD0EC4B9BE0B581C3FCD
:10589000D48AA63C3ECB6BBEB11114BF4B15883FDA
:1058A000CBE07B3F69F8383EE0D787BA71F7AA3E74
:1058B000B94E043E4BD579BEE94DE8BEC75A7FBE0E
:1058C000970A093FED3E02BF6CFB73BF904E85BE49
:1058D000B5AD13BF1DE248BFCAE893BC3313ECBE9D
:1058E00087D78ABE2FA4B0BCDE5F8BBF914120BE9C
:1058F000E90E8DBDDEC5613FD9121BBFC6CC2EBDE2
:10590000DE04CD3E2C9223BF76A291BE6427183FC1
:10591000C860503FD85F7EBEFC55C3BE5EC74CBE5C
:105920006FCAB9BE907C2F3FBA93D6BEEE943FBFEC
:10593000F214ABBEDFEE343F00C34BBD4E19EBBEDD
:105940009E918EC0E09E80C0435865C038464FC0CF
:105950008F1028C059E90DC07492CDBF995290BFE5
:1059600063D738BF6C5DC2BE66479DBDD603513E4E
:105970003829043F0C9D5A3F237F973FA203DA3F0B
:10598000D9ABA5AEBBCAADACCA8ABBBBB9BA98ABE2
:105990008A9B9898BAC8D9AAA9BABB89C888ABCB40
:1059A000A8AC9BBC8BAFBBADBB8BCBBA78D8ACB82B
:1059B0006BA88B898B7BAD789EB9CBBAB97DAAAB2E
:1059C000C878CABDB79A99ABAACBAA9ABA88AABA1C
:1059D000B9B9CA98DBB97BBBAABCDCAA9BAE9BDB7E
:1059E000C8CA6BA8B87AC9B8A475BDABD9DBAA9AE6
:1059F000BA7A9B5B0B9AAB867ABEBBACAC98CA6A90
:105A0000BA9BBBBBBACAC77FA9AAAAADDBC9E8B813
:105A1000AD8CB98AD9BACB9ABD8DACB7ACC6BC9A9D
:105A2000AC88AC9A68AABAC7C87FBB8BCC87A99749
:105A30009ABACCDABBB9BC7CDBBA8DAAAB9CACBA47
:105A400099BBBBB8BB9BCAABBD8ADAA9896C9DACBC
:105A5000B99ACBCBBCBAACDCABAB898D77CB99AB6D
:105A6000BDCBBBCC89CBC9AAC9BBBCBABBADBA8DB7
:105A7000AC7B899BABCA88BDBCBAC98AA5888DB8E6
:105A8000CC9BB8BAB998A89AAB89CA9EADC98CE923
:105A900087D6AC79BBBB97CCABB9DABBBCBACBB9B8
:105AA000BB7BAE9AB88E8DCD78ADCBBCDDBAB9AC30
:105AB0007AD8BAC9BC8BBA7AAA8A9CAA9A9CACB783
:105AC000ACBAC88AADDECBCAAAB886BAA9AC9A8EDF
:105AD000CDACBACBA9ABBC599ECBC59AB9BC8BAAED
